:020000040800F2
:1000000018A60020DD010008790D00087B0D00080E
:100010007D0D00087F0D0008810D00080000000024
:100020000000000000000000000000004501000882
:10003000830D00080000000089010008DD2F000882
:10004000F7010008F7010008F7010008F7010008B0
:10005000F7010008F7010008F7010008F7010008A0
:10006000F7010008F7010008F7010008F701000890
:10007000F7010008F7010008F7010008F701000880
:10008000F7010008F7010008F7010008F701000870
:10009000F7010008F7010008F7010008F701000860
:1000A000F7010008F7010008F7010008F701000850
:1000B000F7010008F7010008F7010008F701000840
:1000C000F7010008F7010008F7010008F701000830
:1000D000F7010008F7010008F7010008F1450008E2
:1000E000F7010008F7010008F7010008F701000810
:1000F000F7010008F7010008F7010008F701000800
:10010000F7010008F7010008F7010008F7010008EF
:10011000F7010008F7010008F7010008F7010008DF
:10012000F7010008F7010008F7010008F7010008CF
:10013000DFF80CD005F03AFD004800474D0C0008F0
:1001400018A60020224B19680868B0E8F00F80F369
:100150000988BFF36F8F4FF0000080F311884EF0D5
:100160000D0E70470000000006480068006880F32C
:10017000088862B661B6BFF34F8FBFF36F8F00DFA1
:1001800000BF00BF08ED00E0EFF30980BFF36F8F01
:100190000F4B1A6820E9F00F106008B54FF05000BF
:1001A00080F31188BFF34F8FBFF36F8F01F047FDCE
:1001B0004FF0000080F31188BDE808401968086816
:1001C000B0E8F00F80F30988BFF36F8F704700BF6E
:1001D00034000020EFF30580704700000648804798
:1001E00006480047FEE7FEE7FEE7FEE7FEE7FEE71C
:1001F000FEE7FEE7FEE7FEE7A10200083101000886
:100200000CB500224C4800920192016841F4803103
:1002100001604FF4A063016801F40031019100997D
:10022000491C0091019911B900999942F3D10168D3
:10023000890333D50121019140490A6842F0100237
:100240000A600A6822F003020A600A6842F00202A9
:100250000A604168416041684160416841F48061E1
:100260004160416821F47C114160416841F4E8112A
:100270004160016841F08071016001688901FCD52D
:10028000416821F003014160416841F00201416091
:100290004168C1F381010229FAD10CBD01920CBD64
:1002A000254810B5016841F0010101604168244A08
:1002B000114041600168234A11400160016821F446
:1002C00080210160416821F4FE0141604FF41F016B
:1002D0008160FFF795FF1C494FF00060086010BD7A
:1002E000154A10B55068194B10F00C01184803D08E
:1002F000042901D0082901D0036012E05168536835
:1003000001F470114FF0020413F4803F04EB9141AB
:1003100002D053689B0301D50E4B00E00B4B5943B1
:10032000016051680A4AC1F30311121D515C026851
:10033000CA40026010BD00000010024000200240D0
:100340000000FFF8FFFFF6FE08ED00E000127A0063
:100350000000002000093D002849084328490860A2
:10036000704730B50F23C27801780125F2B1244AD5
:10037000126801F1E02102F4E062C2F5E062120AC3
:10038000C2F10404D3404278A24084781C40144354
:10039000220181F80024007800F01F018D404009FF
:1003A000800000F1E020C0F8005130BD01F01F00D6
:1003B00085404809800000F1E020C0F8805130BD40
:1003C000104A114001430E48001F016070470C4A5B
:1003D000121D0029116801D0014300E08143116022
:1003E00070474FF0E0210428086903D020F0040092
:1003F0000861704740F00400FAE700000000FA05C9
:100400000CED00E080FFFF1F8F4910B5884206D138
:100410000121042000F049FA002104203BE08B492F
:10042000884206D10121082000F03FFA002108206F
:1004300031E08749884206D10121102000F035FAC9
:100440000021102027E08349884206D10121202085
:1004500000F02BFA002120201DE07F49884206D1C0
:100460000121402000F021FA0021402013E07B49C7
:10047000884206D10121802000F017FA0021802057
:1004800009E0774988420AD184150121204600F00D
:100490000CFA00212046BDE8104000F006BA10BD5D
:1004A00010B50121084600F000FA0021BDE8104017
:1004B000012000F0FAB9F0B5CC78002204F00F0367
:1004C000E40601D58C7823430C784FF00F0C14F020
:1004D000FF0F4FF0010E1BD005680E880EFA02F4D4
:1004E0002640A64210D196000CFA06F725EA070727
:1004F00003FA06F5CE783D43282E02D0482E02D0CE
:1005000002E0446100E00461521C082AE5D3056062
:100510000A88FF2A1CD94468002202F108060EFA54
:1005200006F50E882E40AE420ED196000CFA06F764
:10053000BC4303FA06F7CE783C43282E00D1456130
:10054000CE78482E00D10561521C082AE5D34460BC
:10055000F0BD4FF6FF710180022181700421C1704E
:1005600070470246002092680A4200D0012070477E
:10057000806880B2704702460020D2680A4200D0EC
:1005800001207047C06880B27047016170474161C7
:1005900070470AB10161704741617047C16070479F
:1005A00041F4803282618161826181698069704732
:1005B0002C4B10B51A684FF68074224042EA0010A6
:1005C0000843186010BD2849C8617047F0B5254C34
:1005D000002801DAE36900E06368450D2E0185B269
:1005E000C0F30157B540C0F30342032F05D0C60244
:1005F0000AD503269640B34307E023F07062636890
:1006000023F07063636002E0AB4343F0706201B1BA
:100610002A43002801DAE261F0BD6260F0BD10B546
:100620008A0721F003040F49120F21440F238C681D
:1006300093409C438C608B68904003438B6010BD5B
:100640000949C1F8DC00704700080140000C014076
:10065000001001400014014000180140001C01403E
:10066000002001400000014000002042A548016830
:1006700041F0010101604168A34A114041600168F5
:10068000A24A11400160016821F4802101604168A3
:1006900021F4FE0141604FF41F01816070479949C8
:1006A0000A6822F480320A600A6822F480220A6012
:1006B000B0F5803F07D0B0F5802F03D1086840F433
:1006C000A02008607047086840F48030F9E70346CE
:1006D000002059098B4A01290AD002290AD0516AFF
:1006E00003F01F02012393400B4200D0012070470A
:1006F0001168F5E7116AF3E718B500204FF4A0641C
:1007000000903120FFF7E3FF0099491C0091A142BE
:1007100001D00028F5D03120FFF7D9FF002800D004
:10072000012018BD774A116821F0F80141EAC000A4
:1007300010607047764908607047724B5A680843EA
:1007400022F47C1210435860704771490866704764
:100750006C4A516821F003010143516070476948B8
:10076000406800F00C007047664A516821F0F001C3
:10077000014351607047634A516821F4E0610143CD
:10078000516070475F4A516821F4605141EAC000EE
:10079000506070475B4A0029517A01D0014300E064
:1007A0008143517270475A49C1F8D8007047554A81
:1007B000516821F440410143516070475149002282
:1007C00081F8202081F82020012802D0042802D1BD
:1007D000052081F8200070474E490860704749495C
:1007E0000A6A02430A6270474A49443908607047FE
:1007F00030B5444A5168484B11F00C0103D004292C
:1008000001D0082901D0036012E05168536801F457
:1008100070114FF0020413F4803F04EB914102D0B9
:1008200053689B0301D53D4B00E03B4B59430160AE
:1008300051680F2303EA1111394B5C5C0168E140F8
:1008400041605468072505EA14241C5D21FA04F46C
:100850008460546805EAD4241B5DD940C1605268A5
:10086000032303EA92322E4B1B1F9A5CB1FBF2F179
:10087000016130BD234A0029516901D0014300E0E4
:100880008143516170471F4A0029916901D001439A
:1008900000E08143916170471A4A0029D16901D073
:1008A000014300E08143D1617047164A0029D168B5
:1008B00001D0014300E08143D1607047114A002913
:1008C000116901D0014300E0814311617047114972
:1008D0004039086070470E49C86470470949C871BB
:1008E00070470848416A41F0807141627047054A8B
:1008F0000146002092680A4200D001207047014959
:1009000088727047001002400000FFF8FFFFF6FEFB
:10091000000042428004424200127A0000093D0079
:1009200018000020C44910B588420AD101218C0367
:100930002046FFF7BAFF2046BDE810400021FFF730
:10094000B4BFBE49884202D101214C0410E0BC4929
:10095000884202D101218C040AE0BA49884202D1BE
:100960000121CC0404E0B84988420AD101210C05D8
:100970002046FFF7A3FF2046BDE810400021FFF707
:100980009DBF10BD30B50446008A85B00D464CF6BB
:10099000FF710840E98801432182A0894EF6F311D6
:1009A0000840A9882A8911436A8902431143A18119
:1009B000A08A4FF6FF410840A9890143A1826846F9
:1009C000FFF716FF9C48844201D1039800E002988B
:1009D000A189090400EBC00101EB0010296801D5D1
:1009E000490000E08900B0FBF1F06422B0FBF2F1B5
:1009F00009010B096FF018056B4300EB8300A38915
:100A00001D044FF0320306D503EBC000B0FBF2F03B
:100A100000F0070005E003EB0010B0FBF2F000F07F
:100A20000F000843208105B030BD4FF4165101601E
:100A300000218180C18001810C2242818181704727
:100A400010B5028A4FF2FF031A400B884C882343EB
:100A50008C88C9880C4323431343038210BD0021B3
:100A6000018041808180C18070470029818902D046
:100A700041F4005101E021F400518181704710B52B
:100A8000C1F3421301F01F040121A140012B07D043
:100A9000022B07D01430002A026805D00A4304E074
:100AA0000C30F8E71030F6E78A43026010BD002AE8
:100AB000828A01D00A4300E08A4382827047028A18
:100AC00022F00F020282028A0A4302827047828960
:100AD00022F40062828182890A4382817047002960
:100AE000818902D041F0020101E021F002018181FF
:100AF0007047028A22F020020282028A0A4302829E
:100B000070470029018A02D041F4804101E021F4BC
:100B1000804101827047C1F308018180704780885D
:100B2000C0F308007047818941F00101818170475D
:100B3000028BD2B20283028B42EA01210183704709
:100B4000028B02F47F420283028B0A4302837047C6
:100B50000029818A02D041F0200101E021F020012A
:100B6000818270470029818A02D041F0100101E0A2
:100B700021F01001818270470029818A02D041F062
:100B8000080101E021F00801818270470029818974
:100B900002D041F4004101E0C1F30E0181817047B0
:100BA0000029818A02D041F4006101E021F4006152
:100BB00081827047828A22F004028282828A0A43FA
:100BC000828270470029818A02D041F0020101E04F
:100BD00021F00201818270470246002012880A42F9
:100BE00000D001207047C9430180704770B501F003
:100BF0001F0501260024C1F3421306FA05F2012B5A
:100C00000FD0022B0FD0838A4FEA112100881342A4
:100C100006FA01F600EA060001D000B101242046E0
:100C200070BD8389F0E7038AEEE70A0A012191404B
:100C3000C943018070470000003801400044004073
:100C400000480040004C0040005000401FB504F038
:100C500055F83B4C206804F046FD01464FF4FA6518
:100C60002A46022004F0C8F8606804F03CFD014602
:100C70002A46012004F0C0F8344A33490092314832
:100C8000CDE901010390324B324A3349334804F035
:100C90003DF9334800903148D4E90021314B1C38EC
:100CA00004F0D8F804F06FF8FEE70124244D002684
:100CB000012003F0D6FA08B1AC600AE0022003F08C
:100CC000D0FA30B10220AE6004F0ACF8012004F09C
:100CD000A9F80A2000F0EBFEEAE71CB5184C012148
:100CE00021A2084603F00DFF022301210420A2687F
:100CF00003F020FF606804F042FD05460E462068C0
:100D000004F03DFDCDE9005602460B4617A004F065
:100D1000B1FF0A2000F0CBFEE1E710B50849022040
:100D200004F07AF806490120091D04F075F804481A
:100D30008068012803D1BDE8104004F0AAB910BDB5
:100D400028000020CDCCAE4200003C429A99F941E7
:100D50009A99C64233331F4200007042F0000020CF
:100D60000000FA43000020414C4A4600253032661C
:100D70002C253032660A00007047FEE7FEE7FEE7EA
:100D8000FEE7704700F108014FF0FF32C0E90112A1
:100D9000C16001610021016070470021016170475D
:100DA00042684A6093688B609368596091600861FB
:100DB0000168491C0160704730B50C68621C02D0A4
:100DC00000F1080202E0026904E01A4653681D6857
:100DD000A542FAD953684B6099608A6051600861F6
:100DE0000168491C016030BDD0E9013201699A6097
:100DF000D0E901235A604A68824201D182684A6080
:100E0000002202610868401E0860704770B50D46F8
:100E1000040005D140F21B12F7A1FEA004F02AFF46
:100E200001F0D8FFD4E90F20216802FB00116160B6
:100E30000021A1632168A1600A46D4E90F01401E88
:100E400000FB0121E16021464FF0FF3001F8440F23
:100E5000487004F110004DB1FFF794FF04F1240035
:100E6000FFF790FF01F0D0FF012070BD216900293C
:100E7000F8D001F0C1F80028F4D0EA494FF08050D2
:100E80000860BFF34F8FBFF36F8FEBE770B50E466F
:100E9000050005D14FF4C472D7A1DEA004F0EAFE2C
:100EA00096B105FB06F0483001F03EFE040009D083
:100EB00004F1480120464EB10160C0E90F560121FE
:100EC000FFF7A4FF204670BD0020ECE70060F4E7C8
:100ED0002DE9F041044601F07DFF94F9455004F1FD
:100EE000240609E0606A48B1304601F085F808B18F
:100EF00001F034F96D1E6DB2002DF3DC4FF0FF36BA
:100F000084F8456001F080FF01F064FF94F94450DB
:100F100004F1100709E0206948B1384601F06CF887
:100F200008B101F01BF96D1E6DB2002DF3DC84F8E1
:100F30004460BDE8F04101F067BF2DE9F041856BE9
:100F4000164604460027026CFAB17EB1E06804F050
:100F50003DF9E168206C091AE1602268914202D2F1
:100F60006168081AE060022E0DD00EE0A06804F05F
:100F70002DF9216CA0680844A0606168884204D300
:100F80002068A06001E005B16D1E6D1CA5633846A8
:100F9000BDE8F0812DE9FF4F83B01F468B4604006A
:100FA0004FF0000605D140F2D92293A199A004F098
:100FB00061FEBBF1000F07D1206C28B140F2DA22AC
:100FC0008DA194A004F056FE022F08D1E06B0128F9
:100FD00005D040F2DB2288A18EA004F04BFE01F088
:100FE000C1F838B9059828B140F2DE2282A189A063
:100FF00004F040FE4FF0000A4FF08058DFF82492D2
:1010000001F0E8FEA06BE16B884205D3022F03D00C
:101010000598C8B1DEB11EE03A4659462046FFF7B2
:101020008CFF616A19B104F1240000F0E5FF28B1DA
:10103000C9F80080BFF34F8FBFF36F8F01F0E4FE5C
:10104000012007B0BDE8F08F01F0DEFE21E0684628
:1010500001F040F8012601F0D7FE00F0C5FC01F0D8
:10106000B9FE94F94400401C01D184F844A094F9DD
:101070004500401C01D184F845A001F0C5FE05A93A
:10108000684601F038F830B12046FFF721FF00F044
:101090001DFC0020D5E701F09DFEA06BE16B8842AE
:1010A00001D1012500E0002501F0AEFE95B104F16B
:1010B0001000059900F047FF2046FFF709FF00F0F8
:1010C00005FC00289CD1C9F80080BFF34F8FBFF307
:1010D0006F8F95E72046FFF7FBFE00F0F7FB8FE7E9
:1010E0002DE9F0471F4690468946040005D140F29D
:1010F0009F3241A147A004F0BDFDB9F1000F07D117
:10110000206C28B14FF468723BA142A004F0B2FDFC
:10111000022F08D1E06B012805D040F2A13236A1A0
:101120003CA004F0A7FD01F094FE5020EFF31186DF
:1011300080F31188BFF34F8FBFF36F8FA06BE16B0C
:10114000884206D3022F04D0002086F31188BDE820
:10115000F08794F945503A4649462046FFF7EDFEA0
:10116000681C04D06D1C84F845500120EDE7606ACE
:101170000028FAD004F1240000F03EFF0028F4D04B
:10118000B8F1000FF1D00121C8F80010EDE770B5FB
:101190000E46040005D140F23C4217A11DA004F008
:1011A00069FD206C28B14FF4886213A119A004F0E6
:1011B00061FD206838B9606828B140F245420EA14F
:1011C00014A004F057FD01F044FE5020EFF3118508
:1011D00080F31188BFF34F8FBFF36F8FA16BE06B6C
:1011E000884231D994F94500491CA163411C1DD0A6
:1011F000401C84F8450017E02E2E5C2E2E5C4672B3
:10120000656552544F535C7372635C7175657565A7
:101210002E6300004572726F723A25732C25640D9F
:101220000A00000004ED00E001200EE0606A0028E2
:10123000E1D004F1240000F0DFFE0028DBD0002E16
:10124000D9D001203060D6E7002085F3118870BD29
:1012500030B4026C0B46002A0BD0C1681144C16047
:101260004468A14201D30168C16030BC184603F054
:10127000ADBF30BC70472DE9FF4F83B09B468A4617
:1012800004004FF0000607D140F2DC42AFF29801B3
:10129000AFF2800004F0EEFCBAF1000F09D1206C2F
:1012A00038B140F2DD42AFF2B001AFF2980004F085
:1012B000E1FC00F057FF48B9059838B14FF49C6243
:1012C000AFF2CC01AFF2B40004F0D4FC4FF000094F
:1012D0004FF08057DFF8848301F07CFDA56B0DB3E0
:1012E00051462046E668FFF7B3FFBBF1000F11D06F
:1012F000E660606A50B104F1240000F07DFE28B180
:10130000C8F80070BFF34F8FBFF36F8F01F07CFD03
:10131000012096E66D1EA56320690028F6D004F131
:101320001000EAE7059808B11EB106E001F06CFD77
:1013300027E0684600F0CEFE012601F065FD00F0D2
:1013400053FB01F047FD94F94400401C01D184F89F
:10135000449094F94500401C01D184F8459001F077
:1013600053FD05A9684600F0C6FE002820460AD0B5
:10137000FFF7AEFD00F0AAFA204600F062F900285F
:10138000AAD000205DE600F05CF990B104F12400E1
:10139000059900F0D8FD2046FFF79AFD00F096FA77
:1013A000002899D1C8F80070BFF34F8FBFF36F8F3B
:1013B00092E72046FFF78CFD00F088FA8CE72DE9D4
:1013C000F04790468946040007D14FF4B462AFF26B
:1013D000D811AFF2C01004F04DFCB9F1000F09D1E3
:1013E000206C38B140F2A152AFF2F411AFF2DC1030
:1013F00004F040FC01F02DFD5020EFF3118780F345
:101400001188BFF34F8FBFF36F8FA66BF6B194F9BE
:10141000445049462046FFF71BFF761EA663681C12
:1014200004D06D1C84F84450012010E0206900288D
:10143000FAD004F1100000F0DFFD0028F4D0B8F17C
:10144000000FF1D00121C8F80010EDE7002087F36C
:1014500011887CE62DE9F0410E46040007D140F2E8
:10146000FC52AFF26C21AFF2542004F003FC4EB9F1
:10147000206C48B140F2FD52AFF28421AFF26C20F3
:1014800004F0F8FB206C38B940F2FE52AFF298211C
:10149000AFF2802004F0EEFB01F0DBFC5020EFF314
:1014A000118580F31188BFF34F8FBFF36F8FA06B4F
:1014B00030B131462046E768FFF7CAFE0120E760F9
:1014C00085F3118864E510B5040007D140F22F625E
:1014D000AFF2DC21AFF2C42004F0CCFB01F07AFCC7
:1014E000A46B01F091FC204610BD10B5040007D19B
:1014F00040F24162AFF20031AFF2E82004F0BAFBF3
:1015000001F068FCD4E90E10441A01F07DFC20467D
:1015100010BD10B5040007D140F25162AFF228317E
:10152000AFF2103004F0A6FBA06B10BD4C4A0021B6
:1015300002EBC1035B68834206D1002042F8310010
:1015400002EBC10148607047491C0A29F0D370477B
:1015500010B5040007D140F25D62AFF26431AFF222
:101560004C3004F087FB2046FFF7E0FF2046BDE843
:10157000104001F044BB10B5040007D140F2937253
:10158000AFF28C31AFF2743004F074FBA06B08B191
:10159000002010BD012010BD10B5040007D140F29D
:1015A000BA72AFF2AC31AFF2943004F063FBA06BCF
:1015B000E16B884201D1012010BD002010BD10B5A3
:1015C000274B002253F832401CB1521C0A2AF9D38F
:1015D00010BD43F8321003EBC201486010BD10B5D6
:1015E00000241F4A214602EBC1035B68834202D1FB
:1015F00052F8314002E0491C0A29F4D3204610BDBC
:1016000070B515460E46044601F0E4FB94F944100B
:101610000020491C01D184F8440094F94510491C6C
:1016200001D184F8450001F0EFFBA06B28B92A46F0
:10163000314604F1240000F0C4FC2046BDE87040AF
:1016400046E410B5044601F0C5FBA06B20B10024B0
:1016500001F0DAFB204610BD0124F9E704ED00E0BB
:101660001C0100202DE9F041054601F0B3FBFE4EC0
:10167000B068401CB0603068FC4F10B1706930B386
:101680002BE03560B068012827D1002404EB8400EA
:1016900007EB8000FFF776FB641C202CF6D3F448A0
:1016A000FFF770FBF2481430FFF76CFBF04828306E
:1016B000FFF768FBEE483C30FFF764FBEC48503026
:1016C000FFF760FBEA4870631430B06305E03068F0
:1016D000E96AC06A884200D83560706A0121401CFE
:1016E0007062E86A326981401143316100EB800029
:1016F00007EB8000291DFFF753FB01F085FB7069A4
:1017000000280CD03068E96AC06A884207D2D949FB
:101710004FF080500860BFF34F8FBFF36F8FBDE86D
:10172000F0812DE9FF5F8346DDE90E879946164675
:101730008A46900001F0F8F905001AD04C2001F01B
:10174000F3F9040012D025630021CDE90241CDE96F
:1017500000874B4632465146584600F0CCFE2046A4
:10176000FFF780FF012004B0BDE8F09F284601F09C
:1017700046FA4FF0FF30F6E770B5044601F02AFB59
:10178000B94D04B92C68201DFFF72EFB58B9E06A4B
:10179000B64A00EB800152F8211021B901218140A5
:1017A000286988432861A06A18B104F11800FFF77E
:1017B0001BFB686A401C68622868844208D1AC48F8
:1017C000211D3C30FFF7ECFA6868401C686007E0B8
:1017D000A868401EA860204600F0DEFE00F0CFFEA4
:1017E00001F012FB6869002812D0286884420FD1EA
:1017F000286B28B140F265429FA1A6A004F03AFAF6
:101800009C494FF080500860BFF34F8FBFF36F8F3C
:1018100070BD2DE9F041944F0026386B38B1B8699E
:10182000401CB861F86900B10126304677E7FD68D1
:101830006D1CFD6011D1786B006828B140F6D9129B
:101840008DA194A004F016FA786BB96B7963B86334
:10185000386A401C386200F092FEB86ADFF80C82E9
:10186000854209D3786B006880B1786BC068C46822
:10187000606885420DD2B8623868C06A00EB8001AA
:1018800058F821000128CDD90126CBE74FF0FF30D1
:10189000F1E7201DFFF7A8FAA06A18B104F11800BB
:1018A000FFF7A2FAE06A01213A69814011433961E8
:1018B00000EB800108EB8100211DFFF771FAE06A5F
:1018C0003968C96A8842CDD30126CBE72DE9F047B4
:1018D000654D00242746286B28B94FF4FD6266A1A8
:1018E0006CA004F0C7F901F075FA286B401E28635C
:1018F000286BE0BBA8685E4928310126B8B3DFF841
:101900006C918846D8F80010E9B1D8F80C00C4688A
:1019100004F11800FFF768FA201DFFF765FAE06A86
:101920002A6906FA00F11143296100EB800109EBF5
:101930008100211DFFF734FAE06A2968C96A8842EC
:10194000E0D3EE61DEE70CB100F019FEAC693CB10A
:10195000FFF75FFF00B1EE61641EF9D10020A861BE
:10196000E86920B1434901273807086000E003E037
:10197000BFF34F8FBFF36F8F01F046FA3846BDE8D3
:10198000F0872DE9F041384E0F460446F56830687F
:10199000001DFFF729FA38B9306890F82C100120A3
:1019A0008840316981433161601C08D13FB13168A1
:1019B000BDE8F0412E485030091DFFF7F1B93068FD
:1019C0002C44AC424460316805D2B06BBDE8F041B4
:1019D000091DFFF7F1B9706B091DFFF7EDF9B06A4A
:1019E000844200D2B4629AE61F48016B491C01632D
:1019F00070472DE9F0410E4605004FF0000405D177
:101A000040F279421CA123A004F034F92EB940F22F
:101A10007A4219A11FA004F02DF9134F386B28B199
:101A200040F27B4214A11BA004F024F9FFF7DCFF75
:101A3000FA6828688119904202D9884202D804E0E5
:101A4000884201D8914200D9012429601CB1881A2A
:101A50000021FFF796FFFFF739FF002826D105493F
:101A60004FF0805008601DE0340000206C01002021
:101A7000EC03002004ED00E02E2E5C2E2E5C46725E
:101A8000656552544F535C7372635C7461736B731E
:101A90002E6300004572726F723A25732C25640D17
:101AA0000A000000BFF34F8FBFF36F8F37E610B50A
:101AB000040014D0FE49096B39B140F2CF42AFF2B5
:101AC0004801AFF2300004F0D5F8FFF78DFF002198
:101AD0002046FFF756FFFFF7F9FE002807D1F5492A
:101AE0004FF080500860BFF34F8FBFF36F8F10BD72
:101AF00070B5050007D140F2FB42AFF28401AFF2AE
:101B00006C0004F0B7F8EA4E3068854201D100203D
:101B100070BD01F05FF96C6901F076F9706B844279
:101B200002D0B06B844201D1022070BDE2488442F1
:101B300004D1A86A0028F7D1032070BDDE4814380C
:101B4000844202D00CB1012070BD042070BD10B5DC
:101B5000044601F03FF90CB9D5480468E46A01F085
:101B600053F9204610BD10B5044601F072F950201B
:101B7000EFF3118180F31188BFF34F8FBFF36F8FA5
:101B80000CB9CB480468E06A81F3118810BD2DE9D7
:101B9000F04100260D460446202908D34FF4B062D8
:101BA000AFF22C11AFF2141004F064F81F2501F00D
:101BB00011F9BF4F04B93C68E06AA8423BD03968CC
:101BC000854206D98C4207D03968C96AA94202D930
:101BD00002E08C4200D101268046E562A06900281F
:101BE00002DBC5F12000A061B44D08EB88006169FB
:101BF00005EB8000814215D1201DFFF7F5F801218A
:101C000020B93A6901FA08F082433A61E06A3A6918
:101C100081401143396100EB800005EB8000211DFC
:101C2000FFF7BEF83EB1A3494FF080500860BFF304
:101C30004F8FBFF36F8FBDE8F04101F0E5B870B58D
:101C40009B4D286B10B10120E86170BD0020E86158
:101C500028699A4EB0FA80F0C0F11F0000EB8004B2
:101C600056F8240038B940F6F622AFF2F411AFF27C
:101C7000DC1003F0FFFF06EB840000F1080241686E
:101C800049684160914201D149684160C868286053
:101C900070BD70B5044601F09DF8854D04B92C68FF
:101CA000201DFFF7A1F858B9E06A844A00EB8001D3
:101CB00052F8211021B90121814028698843286107
:101CC000A06A18B104F11800FFF78EF8211D7A48B8
:101CD000FFF766F801F098F8686928B101F07AF822
:101CE00000F04DFC01F090F82868844213D1686937
:101CF00090B1286B38B140F25762AFF28421AFF255
:101D00006C2003F0B7FF6B494FF080500860BFF3C1
:101D10004F8FBFF36F8F70BD6748A9680068884216
:101D200002D10020286070BDBDE8704087E770B523
:101D30000025040007D140F28162AFF2C421AFF266
:101D4000AC2003F097FF5C496069884205D1A06A26
:101D50002839884201D000B90125284670BD70B5E8
:101D600004002BD0524D2868844231D001F032F863
:101D70002046FFF7DCFFE8B1201DFFF735F8E06AE9
:101D800001212A698140114329614C4900EB8000FF
:101D900001EB8000211DFFF703F8E06A2968C96A9A
:101DA000884207D343494FF080500860BFF34F8FFC
:101DB000BFF36F8FBDE8704001F026B840F2AB6210
:101DC000AFF24C31AFF23430BDE8704003F052BF97
:101DD00070BD2DE9F0410026040007D140F2E26217
:101DE000AFF26C31AFF2543003F044FF01F031F840
:101DF0005020EFF3118580F31188BFF34F8FBFF3AD
:101E00006F8F2046FFF793FFF0B1294F386B20B159
:101E1000294804F11801283814E0E06A3968C96AD1
:101E2000884200D30126201DFEF7DEFFE06A012173
:101E30003A69814011433961204900EB800001EB90
:101E40008000211DFEF7ACFF85F31188304666E463
:101E50001A4E4FF08054174D00F0A8FB306801284F
:101E6000FAD92C60BFF34F8FBFF36F8FF4E71CB527
:101E70000F4800242C30CDE900402346802210A1D9
:101E80001148FFF74EFC012803D100F0A8FC0128FF
:101E90000CD0401C2BD140F28472AFF22441AFF23F
:101EA0000C4002B0BDE8104003F0E4BE50200DE04D
:101EB0003400002004ED00E03C0400206C01002010
:101EC00049444C4500000000511E000880F3118871
:101ED000BFF34F8FBFF36F8FF8484FF0FF31816230
:101EE00001214161C460BDE81C4000F031BF1CBD50
:101EF000502080F31188BFF34F8FBFF36F8FEF49EE
:101F00000020486100F05ABFEC48C068704710B527
:101F100000F09FFFE948C06810BDE848806870473E
:101F200010B510B104461CB10AE0E4480468FAE7B1
:101F300040F68C02AFF2C041AFF2A84003F09AFE27
:101F400004F1340010BD70B50D46040007D140F611
:101F50000632AFF2DC41AFF2C44003F08BFED7484B
:101F6000016820461831FEF727FF2846BDE870407B
:101F7000012106E52DE9F04117460E46050007D17F
:101F800040F61732AFF21051AFF2F84003F072FE94
:101F9000CA4C206B38B940F61B32AFF22451AFF275
:101FA0000C5003F067FE216846F00040886121680C
:101FB00028461831FEF7F4FE3846BDE8F04101210D
:101FC000DFE470B514460E46050007D140F6313205
:101FD000AFF25C51AFF2445003F04CFEB7480168D9
:101FE00028461831FEF7DCFE0CB14FF0FF362146D3
:101FF0003046BDE87040C4E42DE9F041C068C468D3
:102000003CB940F66132AFF29051AFF2785003F034
:1020100031FE04F118000746FEF7E6FEA74D286BD7
:10202000012658B13946A648FEF7BAFEE06A29688B
:10203000C96A884212D90120EE61D4E4201DFEF75E
:10204000D3FEE06A2A6906FA00F1114329619D492D
:1020500000EB800001EB8000211DE5E70020C2E4D9
:1020600070B5964D06460C46286B38B940F6993245
:10207000AFF2FC51AFF2E45003F0FCFD44F000403D
:102080003060F4683CB940F6A132AFF21461AFF2AF
:10209000FC5003F0EFFD3046FEF7A6FE201DFEF7D4
:1020A000A3FEE06A01262A6906FA00F111432961BC
:1020B000844900EB800001EB8000211DFEF770FEDB
:1020C000E06A2968C96A884202D90120EE6170BDC0
:1020D000002070BD10B5040007D140F6C132AFF248
:1020E0006861AFF2506003F0C5FD7448016A216079
:1020F000C068606010BD70B50D46040007D140F6A1
:10210000CB32AFF28C61AFF2746003F0B3FD3DB936
:1021100040F6CC32AFF2A061AFF2886003F0AAFDC6
:1021200000F058FE654AD06829684B1C0FD0236820
:10213000126A934202D0626882420AD96268801AA7
:10214000884206D2081A28602046FFF7C3FF002401
:1021500000E0012400F058FE204670BD57490120E0
:10216000C86170475548416919B1006B18B100202A
:1021700070470120704702207047504908680A687C
:102180008069D26A0968C2F120028A61704770B51D
:102190000C46064600F01EFE484D2868406C80B98B
:1021A0002968012081F848005CB101212046FFF731
:1021B000E8FB45494FF080500860BFF34F8FBFF3F5
:1021C0006F8F00F021FE00F005FE2868446C0020AF
:1021D00034B116B12968486402E02A68611E51646E
:1021E000296881F8480000F00FFE204670BD2DE9F7
:1021F000F0411E4615468846074600F0EBFD2F4C81
:10220000206890F84800022814D02068416CB94337
:1022100041642168012081F848005EB10121304607
:10222000FFF7AFFB28494FF080500860BFF34F8F96
:10223000BFF36F8F00F0E8FD00F0CCFD15B1206812
:10224000406C2860206890F8480001280DD0206874
:10225000416C21EA0801416401252168002081F8D0
:10226000480000F0D1FD284620E40025F5E72DE9DF
:10227000F0411F4690460D4604004FF0010607D17D
:1022800041F2FD02AFF61001AFF2F87003F0F2FC7C
:1022900000F0A0FD0FB1606C386094F84800022196
:1022A00084F84810B8F1050F17D2DFE808F01603DC
:1022B0000F151300616C29430AE000003400002070
:1022C000140400206C01002004ED00E0616C491C46
:1022D000616402E0022803D06564012802D02AE08C
:1022E000002628E0201DFEF77FFDC34DE06A012196
:1022F0002A69814011432961C04900EB800001EB4C
:102300008000211DFEF74CFDA06A38B141F2351264
:10231000AFF69C01AFF6840003F0ACFCE06A2968DC
:10232000C96A884207D9B6494FF080500860BFF3A8
:102330004F8FBFF36F8F00F067FD304687E52DE9C3
:10234000F0471F46DDF8209092460D4604004FF0FE
:10235000010807D141F26812AFF6E401AFF6CC00F4
:1023600003F088FC00F075FD5020EFF3118680F338
:102370001188BFF34F8FBFF36F8F0FB1606C386060
:1023800094F84800022184F84810BAF1050F0ED2E3
:10239000DFE80AF00D03060C0A00616C294301E036
:1023A000616C491C616402E0022803D06564012865
:1023B00003D031E04FF000082EE0A06A38B141F2BE
:1023C000AF12AFF64C11AFF6341003F053FC8A4D48
:1023D000286B012778B104F118018A48FEF7E0FC68
:1023E000E06A2968C96A884216D9B9F1000F12D08B
:1023F000C9F8007010E0201DFEF7F6FCE06A2A69BB
:1024000007FA00F11143296100EB80017B4800EBE2
:102410008100211DE2E7EF6186F311884046BDE8A7
:10242000F0872DE9F0418846040007D141F2E3121C
:10243000AFF6BC11AFF6A41003F01CFC00F009FDD0
:102440005020EFF3118780F31188BFF34F8FBFF354
:102450006F8F94F84800022184F84810616C491C81
:10246000616401282ED1A06A38B141F20922AFF689
:10247000F811AFF6E01003F0FDFB5F4D286B01266D
:1024800078B104F118015F48FEF78AFCE06A296818
:10249000C96A884216D9B8F1000F12D0C8F8006096
:1024A00010E0201DFEF7A0FCE06A2A6906FA00F1A0
:1024B00011432961514900EB800001EB8000211D8F
:1024C000E2E7EE6187F31188C1E410B558B1044624
:1024D00000F080FC94F84800022807D0002400F0A7
:1024E00093FC204610BD44480468F1E7002084F8BE
:1024F00048000124F3E72DE9F0470E46DDE90984A1
:1025000082466FF00301206B01EB82010844089DB5
:1025100020F007079946780705D040F22B323AA100
:1025200040A003F0A7FB00202218315C82F8341091
:10253000315C11B1401C1028F6D3002684F84360AA
:10254000202D00D31F25201DE562FEF726FC04F197
:102550001800FEF722FC2461C5F120006462A0612E
:10256000666484F848604A465146384600F0D3FB1A
:102570002060B8F1000F01D0C8F800404FE71E48B6
:10258000416B096829B1416BC968C96849688162B2
:1025900070474FF0FF31FAE710B50446006B00F0CA
:1025A0002EFB2046BDE8104000F029BB70B5154E4B
:1025B000114D14361CE0FFF717FA306820B10024E3
:1025C000FFF784F9A4B901E00124F9E700F002FC67
:1025D000F068C468201DFEF707FCA868401EA860CC
:1025E0006868401E686000F00FFC2046FFF7D4FFCB
:1025F00068680028DFD170BD340000206C01002025
:1026000004ED00E0140400202E2E5C2E2E5C467299
:10261000656552544F535C7372635C7461736B7382
:102620002E6300004572726F723A25732C25640D7B
:102630000A00000070B500244160FF4D0061914226
:1026400006D8D11A8269914206D2011D286907E095
:102650009A4203D2994201D3012403E0011DE868A4
:10266000FEF7AAFB204670BD2DE9FE4F9946DDF826
:1026700030A090460D4606004FF0000705D14FF4FC
:10268000D372EEA1F4A003F0F5FAEB4C206880B110
:10269000CDE900580296062D10DAFFF763FD0228F7
:1026A0004FF0000308D0002269462068FEF772FC54
:1026B00007463846BDE8FE8F5246F5E700234A46F6
:1026C0006946FEF70DFDF3E770B586B0DA4E4CE0D3
:1026D0000198002849DB039C606910B1201DFEF7BA
:1026E00083FB04A800F01FF9054601980A283CD294
:1026F000DFE800F00505053B273805053B27029874
:10270000A169034601442A462046FFF793FF0028AB
:102710002BD0616A20468847E069012825D1002036
:1027200000900298A1690023421819462046FFF73D
:102730009BFFD0B940F22132C0A1C7A003F09AFAA2
:1027400013E00298A06128B94FF44E72BBA1C2A059
:1027500003F090FAA0692B4641191A462046FFF76C
:1027600069FF02E0204600F04AFA00231A4601A958
:102770003068FEF780FD0028AAD106B070BDAE4CCF
:10278000E068016839B1002139B1002000F0DDF8BE
:10279000FFF79AFFF4E70121F6E7C0680068F5E764
:1027A00010B500F017FBA44C2068A0B9AE48FEF7A6
:1027B000E9FAAD481430FEF7E5FAAB48E0601430B2
:1027C000206100220C210A20FEF760FB206010B17E
:1027D000A6A1FEF7F4FEBDE8104000F015BB1CB545
:1027E0000024FFF7DDFF9448006868B192491F207C
:1027F000091DCDE9000100234FF480729DA19F487F
:10280000FEF78FFF040005D140F233128BA192A096
:1028100003F030FA20461CBD2DE9F04707469946E3
:1028200016460D462820DDF820A000F07DF90400B2
:1028300014D0B8464F46D1462DB94FF4C67290A178
:1028400096A003F017FAFFF7ABFF04F11801C4F8E4
:10285000008081E8E002201DFEF79FFA2046BDE8D7
:10286000F08710B5744C606828B94FF4E87273A112
:1028700079A003F0FFF9606810BD10B5040005D120
:1028800040F2D9126DA174A003F0F4F9A06910BD53
:1028900010B5040005D140F2E31268A16EA003F068
:1028A000E9F9606810BD10B5040005D140F2ED12E1
:1028B00062A169A003F0DEF9206810BD10B5040024
:1028C00005D140F2DA325DA163A003F0D3F900F044
:1028D00081FA606908B1012400E0002400F094FA54
:1028E000204610BD10B5040005D140F2EF3253A1CF
:1028F00059A003F0BFF900F06DFA246A00F084FAE1
:10290000204610BD70B50D46040005D140F2FF32DF
:102910004AA151A003F0AEF900F05CFA2562BDE8CF
:10292000704000F071BA70B50546FFF7EDFA424EFF
:102930000446B068844203D200F038F8012000E079
:10294000002028602046B46070BDF8B50D460646EC
:10295000FFF74AF86846FFF7E6FF0446009810B113
:10296000FEF7B4FFF8BD3448ADB101690968D9B1CB
:102970000025311B2A460068FEF742FEFEF7A6FF3F
:102980000028EFD149494FF080500860BFF34F8FC6
:10299000BFF36F8FF8BDA642EBD8FEF797FF214635
:1029A000304600F034F8F8BD0125E2E7F8B5224ED4
:1029B00025E0C068C4680568201DFEF715FA616A45
:1029C00020468847E069012819D1A0692844A84217
:1029D00006D924616060211DF068FEF7EDF90EE074
:1029E00000200346014600902A462046FFF73CFEA1
:1029F00028B940F2923222A128A003F03BF9F068F6
:102A000001680029D5D13169C6E90310F8BDF8B5D0
:102A1000054609480E46C068C068C468201DFEF718
:102A2000E3F9E069012855D1A0692B4641193246E6
:102A30002046FFF7FFFD3BE0700000202E2E5C2EAD
:102A40002E5C4672656552544F535C7372635C74BE
:102A5000696D6572732E63004572726F723A2573E9
:102A60002C25640D0A00000050040020546D7251A2
:102A700000000000546D7220537663007F27000829
:102A80002E2E5C2E2E5C4672656552544F535C733D
:102A900072635C74696D6572732E63004572726F48
:102AA000723A25732C25640D0A00000004ED00E045
:102AB00080B100200346014600902A462046FFF7D9
:102AC000D3FD38B94FF40272AFF24C01AFF23400CB
:102AD00003F0D0F8616A01B02046BDE8F040084735
:102AE00030B5744900E011460A688242FBD34B6856
:102AF0005C18844203D14068184448600846436823
:102B00001C18944209D16B4C103C2468A24209D095
:102B100052681A4442600A6812680260814200D01A
:102B2000086030BD0460F9E72DE9F0410546002654
:102B3000FEF75AFF5F4F103F386808B900F098F869
:102B4000F86805424ED1002D4CD0083568070BD0EF
:102B500005F00700C0F108000544680704D0BF2253
:102B600055A15FA003F086F8002D3BD07868854220
:102B700038D850490846046801E021460446606898
:102B8000A84202D220680028F7D13868B8468442AB
:102B900028D00E682068086060680836401B10283E
:102BA0000ED96719780704D0EC2243A14CA003F09A
:102BB00061F86068401B786038466560FFF790FFF9
:102BC0006168D8F804004246401AC8F80400D8F8F2
:102BD0000830984200D29060D8F80C0001430020E1
:102BE000C4E90001FEF772FE700705D04FF496723B
:102BF00031A13BA003F03EF83046BDE8F08170B54E
:102C000000282BD02B4DA0F10804103D6068E96826
:102C1000084205D14FF4A07227A131A003F02AF891
:102C2000206828B140F2411223A12DA003F022F820
:102C30006068E968084211D02268002A0ED18843F2
:102C40006060FEF7D1FE60686968084468602046ED
:102C5000FFF746FFBDE87040FEF738BE70BD15486F
:102C600010384068704713481038806870477047C4
:102C70001F484FF41041420706D0C01D1C4920F0E8
:102C80000700411AC1F510410A4A00230144C2E974
:102C900000030839103A21F0070111604B600B6006
:102CA0000B1AC0E9001393604FF000405360D060EE
:102CB00070470000940000202E2E5C2E2E5C467281
:102CC000656552544F535C706F72745C4D656D4D09
:102CD000616E675C686561705F342E6300000000A0
:102CE0004572726F723A25732C25640D0A0000003C
:102CF0007804002069484068401C04D0F42268A190
:102D000071A002F0B7FF502080F31188BFF34F8FFE
:102D1000BFF36F8FFEE710B5031F4FF080741C6088
:102D20001B1F21F001011960191F6B4B0B60143937
:102D300040380A6010BD69484FF47A710068B0FBF2
:102D4000F1F14FF0E020491E416107210161704718
:102D50001CB5634908780190FF20087008788DF849
:102D600000009DF800004D4A00F050001070072050
:102D7000906007E09068401E90609DF80000400061
:102D80008DF800009DF800000006F3D4107A0002D0
:102D900000F4E0609060019808705248016841F4C6
:102DA00070010160016841F070410160FFF7C3FFED
:102DB00000205060FDF7D8F900201CBD374840685E
:102DC000B0F57A7F05D04FF4B57235A13EA002F080
:102DD00051BF7047502080F31188BFF34F8FBFF36E
:102DE0006F8F2E494868401C486001280BD13D4830
:102DF0001C38006810F0FF0F05D04FF4BD7228A1F9
:102E000031A002F037BF704710B5244C606828B974
:102E100040F2811222A12CA002F02CFF6068401E1B
:102E2000606001D180F3118810BD10B5502080F38F
:102E30001188BFF34F8FBFF36F8FFEF7EAFC20B10D
:102E400028494FF080501C390860002080F3118819
:102E500010BD10B5FDF7BEF9104C10280CD300F1D1
:102E6000E02090F8F0032178884205D24FF42A72CE
:102E70000BA115A002F0FEFE1A4814380068A168E4
:102E800000F4E060884207D9BDE810404FF42E728C
:102E900003A10DA002F0EEBE10BD00009C000020BA
:102EA0002E2E5C2E2E5C4672656552544F535C701C
:102EB0006F72745C525644535C41524D5F434D33C4
:102EC0005C706F72742E63004572726F723A257374
:102ED0002C25640D0A000000F52C000800000020DD
:102EE00000E400E020ED00E0B0F1807F01D301209C
:102EF000704720F07F414FF0E020491E41613F4A7A
:102F0000F02182F8141D0021816107210161002058
:102F100070473B4810B501684FF47A70B1FBF0F090
:102F2000FFF7E2FF00B1FEE74FF0E020016921F07A
:102F30000101016110BD4FF0E022106940F0010075
:102F40001061304801680029FCD1106920F00100AF
:102F50001061704731B52A4C2B492068B0FBF1F065
:102F6000FFF7C2FF274900980860FFF7E4FF2068D9
:102F70004FF47A71B0FBF1F0FFF7B6FF4FF0E020AD
:102F8000016921F00101016138BD01B41D490098BA
:102F9000086001B0CFE701B44FF47A71009801B036
:102FA0004843F2E701B51749009808604FF0E02068
:102FB000016941F00101016108BD1249002008606A
:102FC0004FF0E020016921F00101016170470D48D7
:102FD000006808B10020704701207047094810B50B
:102FE000016809B10168491E0160FFF7BBF80128BB
:102FF00003D0BDE81040FFF718BF10BD0FE000E0A0
:1030000000000020A800002040420F000021818025
:10301000C1807047026000228280C280491C018109
:10302000114603E003685A54491C89B203898B4254
:10303000F8D870470089401E80B270478288C188E6
:103040008A4201D8881A02E00089511A401A80B2D7
:10305000704700B503895B1EFFF7F0FF181A80B2B6
:1030600000BD10B50446FFF7F4FF2189491E89B25F
:10307000884201D1012010BD002010BD00B5FFF72E
:10308000E8FF08B1002000BD012000BD10B50C46CE
:103090000346FFF7D3FFA04201D8002010BD988857
:1030A000641C19892044B0FBF1F201FB120019687D
:1030B00080B2085C10BD10B50446FFF7D2FF08B11E
:1030C000002010BDA0882189401CB0FBF1F201FB5B
:1030D000120081B2A18022680023505C535410BDBD
:1030E00030B50D460446FFF7C9FF00280AD1E08835
:1030F0002289401CB0FBF2F102FB110080B2E0809B
:1031000021680D5430BDD6E7F0B515460E4607468A
:10311000002405E03846FFF7CEFF3055641CA4B20A
:10312000AC42F7D3F0BD08B569460222FFF7ECFFC9
:10313000BDF9000008BD08B569460222FFF7E4FFAB
:10314000BDF8000008BD08B569460422FFF7DCFFA2
:10315000009808BD08B569460422FFF7D5FF00981E
:1031600008BD08B569460422FFF7CEFF009808BDE8
:10317000B6E7F0B515460E460746002405E0315D7A
:103180003846FFF7ADFF641CA4B2AC42F7D3F0BDE4
:1031900003B501A90222FFF7ECFF0CBD03B501A99D
:1031A0000222FFF7E6FF0CBD03B501A90422FFF7D9
:1031B000E0FF0CBD03B501A90422FFF7DAFF0CBD47
:1031C00003B501A90422FFF7D4FF0CBD70B5034677
:1031D000FFF734FF0546002001460DE09A88491CA0
:1031E0001C890A44B2FBF4F604FB16221C6892B256
:1031F00089B2A25C1044C0B2A942EFD370BD10B531
:103200000C460346FFF71AFFA04201D8002010BD6C
:103210009888641C19892044B0FBF1F201FB12006C
:10322000196880B2085C10BD10B50C460346FFF764
:1032300005FF641CA04201D8002010BD98881989A0
:103240002044B0FBF1F201FB120080B2421CB2FB41
:10325000F1F401FB142219688A5C085C40EA022040
:1032600010BD30B50C460546FF21FFF781FF214612
:103270002846BDE8304091E730B50D460446FFF7DB
:1032800042FFFF2807D000222A70002A05D02046DE
:10329000BDE830404FE70122F6E730BD70B50D467E
:1032A000044601882846FFF779FFA1782846FFF7F2
:1032B0005FFF94F8660110B9A088FF2808D9FF21A4
:1032C0002846FFF755FFA1882846FFF767FF03E070
:1032D000C1B22846FFF74CFFA288A11D2846FFF780
:1032E00048FF2846FFF772FF01462846BDE87040B8
:1032F000FFF73EBF10B5DCB004466A4640F26311EA
:1033000059A8FFF787FE59A92046FFF7C7FF59A81C
:10331000FFF794FE401E81B259A8FFF7B7FE5CB0DC
:1033200010BD10B504460088A0F5E051053901D064
:10333000032010BDA0781E2801D9042010BDA0884C
:10334000B0F5AC7F01D9052010BD2046FFF7D2FFB4
:1033500094F86411884201D0062010BD002010BDF1
:1033600070B505464FF4B47003F01EFD04462846C0
:10337000FFF7E1FE20802846FFF7C5FEA070284633
:10338000FFF7C1FEA0800246A11D2846FFF7BCFE44
:103390002846FFF7B8FE84F864012046BDE8704077
:1033A000BFE72DE9F041DAB015460E4604469846CF
:1033B0004FF4B472FE496846609F01F007FF8DF834
:1033C0000260ADF804508DF866712A4641460DF151
:1033D000060001F0FBFE68466168FFF75FFF2046CC
:1033E00001F0F6F85AB0BDE8F08170B504460D461C
:1033F0006420FFF7D7FD50E0A068FFF71FFE052807
:103400004BD30021A068FFF70FFFA0F5E051A068A3
:10341000053902D0FFF777FE3FE00321FFF7EFFE0B
:10342000FF28A06820D00321FFF7E9FE002185F8DE
:1034300066110844401D86B2A068FFF7FFFDB04248
:103440002BD3A068FFF777FE2880A068FFF75BFE0C
:10345000A87095F866010028A0680DD0FFF753FE0C
:10346000A068FFF768FE09E00421FFF7DDFE0121F7
:1034700085F866110221DCE7FFF745FEA88082B2DD
:10348000A91DA068FFF740FEA068FFF73CFE85F885
:1034900064012846BDE8704043E7FFF798FD002827
:1034A000AAD0022070BD2DE9F0410746002081F826
:1034B0006501064605460C466420FFF773FD51E0A2
:1034C000B868FFF7BBFD00B3B868FFF71CFE014604
:1034D00094F86501C20706D082071AD4A170162994
:1034E00014D004207FE715B1052D04D00CE0052988
:1034F0000AD10D4636E01C2906D141F6054121804E
:1035000040F0010084F8650100252BE040F0020046
:1035100016E0420707D4A180102901D0052062E7F8
:1035200040F004000CE002070DD4A019761C817154
:10353000A088F6B2B04215D894F8650140F00800B2
:1035400084F865010EE0C0060CD484F864112046AE
:10355000FFF7D0FE94F86411884201D0062042E7BC
:10356000002040E7FFF733FD0028A9D002203AE70A
:1035700013B5DCB000210122009104465DAB114679
:10358000FFF70FFF01A92046FFF72FFF002806D104
:103590009DF80A109DF87421914200D007205EB07A
:1035A00010BD13B5DCB00021009104465DAB0122D3
:1035B0000221FFF7F6FE01A92046FFF716FF0028BB
:1035C000EDD19DF80B00012801D00120E7E7002094
:1035D000E5E770B5DCB00646609C8DF86C11002004
:1035E0001D468DF86D2100905BAB02220321304611
:1035F000FFF7D7FE01A93046FFF7F7FE00280DD1EF
:10360000BDF8081001AA891E2170002103E053189B
:103610001B7A6B54491C23788B42F8DC5CB070BD7C
:103620002DE9F043DBB08146629D1E461746884671
:10363000A81C03F0B9FB80F8008004464770002006
:1036400003E0315C2218401C9170A842F9DB002095
:1036500000902346AA1C04214846FFF7A2FE01A9B8
:103660004846FFF7C2FE20B99DF80C10012900D092
:1036700001200546204603F0C1F95BB02846BDE8AD
:10368000F0832DE9F04186B014460F4680461D4672
:1036900004AA072101A80C9EFFF7BCFC4548844200
:1036A00002DC4548844200D90446394601A8FFF7A8
:1036B0005FFD4249204601F0F3FD02F014F801B22B
:1036C00001A8FFF765FD294601A8FFF767FD314610
:1036D00001A8FFF763FD002000900DF11103072200
:1036E00008214046FFF75DFE002006B07BE62DE98D
:1036F000F04788B01446DDE91065894682461F46CA
:1037000004AA0B2101A8DDF84880FFF783FC2948B3
:10371000844202DC2848844200D90446142E00D298
:103720001426142D00D21425494601A8FFF720FDC8
:103730002249204601F0B4FD01F0D5FF01B201A8F5
:10374000FFF726FD394601A8FFF728FD314601A8FD
:10375000FFF724FD294601A8FFF720FD414601A8F7
:10376000FFF71CFD00200B2200900DF11103114604
:103770005046FFF716FE002008B0BDE8F0872DE99F
:10378000F04788B01446DDE91076884682461D462B
:1037900004AA0B2101A8DDF84890FFF73BFC05487F
:1037A000844202DC0448844200D9044608E0000058
:1037B000EC79000800003443000034C300002041CD
:1037C0004FF07E50854202DBFE48854200DD054613
:1037D000142F00D21427142E00D21426414601A81B
:1037E000FFF7C6FCDFF8E0832046414601F058FDB4
:1037F00001F079FF01B201A8FFF7CAFC4146284653
:1038000001F04EFD01F088FF81B201A8FFF7C6FC70
:10381000394601A8FFF7C2FC314601A8FFF7BEFCFC
:10382000494601A8FFF7BAFC002000900DF11103F2
:103830000B220C215046FFF7B4FD00209CE737B562
:10384000DCB000211546009104465DAB01220A213F
:10385000FFF7A7FD01A92046FFF7C7FD040014D11B
:103860009DF80A009DF87411884202D007205FB0CD
:1038700030BDBDF80B0000B201F024FF0022D34B95
:1038800001F0A3FE01F08EFF28602046EFE72DE94E
:10389000F04188B014460F4680461D4604AA0B210D
:1038A00001A80E9EFFF7B6FBC948844202DCC94856
:1038B000844200D904464FF47A10854200D9054667
:1038C000394601A8FFF754FCBF49204601F0E8FC47
:1038D00001F009FF014601A8FFF766FC294601A88F
:1038E000FFF768FC31B201A8FFF752FC00200090FE
:1038F0000DF111030B220D214046FFF752FD002070
:1039000008B070E52DE9F04788B01446DDE910767F
:10391000894682461D4604AA0F2101A8DDF8488089
:10392000FFF778FBAA48844202DCAA48844200D907
:1039300004464FF47A10854200D90546142F00D270
:103940001427142E00D21426494601A8FFF710FCB4
:103950009D49204601F0A4FC01F0C5FE014601A8E6
:10396000FFF722FC294601A8FFF724FC394601A8ED
:10397000FFF714FC314601A8FFF710FC0FFA88F19D
:1039800001A8FFF705FC002000900DF111030F22A4
:103990000E215046FFF705FD0020EDE62DE9F0472A
:1039A00088B01446DDE91076884682461D4604AA92
:1039B0000D2101A8DDF84890FFF72CFB84488442D4
:1039C00002DC8448844200D904464FF07E50854290
:1039D00002DB7C48854200DD0546142F00D2142707
:1039E000142E00D21426414601A8FFF7C1FBDFF8D0
:1039F000D8812046414601F053FC01F074FE014697
:103A000001A8FFF7D1FB4146284601F049FC01F02F
:103A100083FE81B201A8FFF7C1FB394601A8FFF779
:103A2000BDFB314601A8FFF7B9FB0FFA89F101A8E8
:103A3000FFF7AEFB002000900DF111030D220F21C6
:103A40005046FFF7AEFC002096E637B5DCB000210B
:103A50001546009104465DAB01221021FFF7A1FC41
:103A600001A92046FFF7C1FC040016D19DF80A0009
:103A70009DF87411884201D00720F8E69DF80E10D9
:103A8000DDF80B0061F31F6001F01CFE00224F4BBC
:103A900001F09BFD01F086FE28602046E7E670B548
:103AA00086B016460D46044604AA032101A8FFF776
:103AB000B1FA294601A8FFF75BFB314601A8FFF7E1
:103AC0006DFB002100910DF1110303220921204615
:103AD000FFF767FC06B0002070BD03B581B0002180
:103AE000009102AB01221121FFF75BFC20460EBDC5
:103AF00003B581B00021009102AB01221721FFF72D
:103B000050FC20460EBD10B586B0044604AA002124
:103B100001A8FFF77FFA002101A8FFF729FB002188
:103B20000A4600910DF1110312212046FFF739FCDE
:103B300006B0002010BD30B585B00D46044604AA7D
:103B4000012101A8FFF766FA294601A8FFF710FB3B
:103B5000002100910DF11103012213212046FFF7EE
:103B600020FC05B0002030BD70B5E0B014460E4614
:103B700005465EAA01215BA8FFF74CFA31465BA817
:103B8000FFF7F6FA002100910DF2791301221621B8
:103B90002846FFF706FC01A92846FFF726FC002867
:103BA00055D19DF80A002070BDF80B006080BDF86B
:103BB0000D00A080BDF80F00E080BDF8110000B23C
:103BC000208109E000803B440000204100002440A7
:103BD0000000B4480000B4C801F074FD05460E466C
:103BE00002460B460020FD4901F077FC02460B46D9
:103BF0002846314601F0E9FC02F028FF0022F84B8C
:103C000001F0E3FCF74AF84B01F0C6FB02460B4615
:103C10000020F64901F0D9FC4FF06632F44B01F078
:103C20005CFC01F08DFD20819DF81300A0729DF8D1
:103C30001400DDF8151040EA012001F035FDED49D2
:103C400001F060FBE060BDF818002082002060B049
:103C500070BDF0B587B014460F4606461D4604AA4F
:103C6000042101A8FFF7D6F9394601A8FFF780FA29
:103C700044F0100101A8FFF77BFA29B201A8FFF771
:103C800087FA002000900DF111030422182130461C
:103C9000FFF787FB07B00020F0BD2DE9F047DAB051
:103CA000904689468246002559E069465046FFF70E
:103CB000FAFB00285AD105EB85009DF8062008F88C
:103CC000202008EB8004BDF807106180BDF80900D2
:103CD000A080BDF80B00E080BDF80D0000B220818F
:103CE00001F0F0FC06460F4602460B460020BB4999
:103CF00001F0F3FB02460B463046394601F065FC05
:103D000002F0A4FE0022B64B01F05FFCB54AB64BB0
:103D100001F042FB02460B460020B44901F055FC7D
:103D20004FF06632B24B01F0D8FB01F009FD208163
:103D30009DF80F00A0729DF81000DDF8111040EA08
:103D4000012001F0B1FCAB4901F0DCFAE060BDF804
:103D500014006D1C20820020EDB28DF865014D45E8
:103D6000A3D3DAF80800FFF751F900205AB004E5B0
:103D70002DE9FF4F0D46C1EB051685B01C46F01C22
:103D800003F012F80490079805EB4501DFF86892FC
:103D9000DFF868A2DFF868B201EBC50708287DD21A
:103DA000DFE800F07C04458DD9EFEEEDC5EBC507EB
:103DB000FF1C394601A8049AFFF72CF9082101A835
:103DC000FFF7D6F9072101A8FFF7D2F9294601A884
:103DD000FFF7CEF9002627E0C6EBC60801A814F8C5
:103DE0002810FFF7C5F904EB8808D8F80400484507
:103DF00002DD4FF4E16109E0504501D9814905E058
:103E00007C4901F04DFA01F06EFC01B201A8FFF708
:103E1000BFF9B8F80C1001A8FFF7C0F9B8F81810EE
:103E200001A8FFF7BBF9761CAE42D5DBA9E1FF1C68
:103E3000394601A8049AFFF7EDF80B2101A8FFF716
:103E400097F90B2101A8FFF793F9294601A8FFF77D
:103E50008FF900202FE0C8EBC80601A814F826103F
:103E6000FFF786F904EB86067068484502DD4FF4DB
:103E7000E16109E0504501D9624905E05D4901F081
:103E80000FFA01F030FC01B201A8FFF781F9B18906
:103E900001A8FFF783F9B18A01A800E078E1FFF7F4
:103EA0007DF9F18A01A8FFF779F9318B01A8FFF7B5
:103EB00075F908F101008046A842CCDB61E1FF1CE6
:103EC000394601A8049AFFF7A5F80C2101A8FFF7CD
:103ED0004FF90B2101A8FFF74BF9294601A8FFF77D
:103EE00047F9002033E0C8EBC80601A814F82610F3
:103EF000FFF73EF904EB86067068484502DD4FF493
:103F0000E16109E0504501D93E4905E0394901F038
:103F1000C7F901F0E8FB01B201A8FFF739F935490B
:103F2000B06801F0BDF901F0F7FB81B201A8FFF71D
:103F300035F9B18A01A8FFF731F9F18A01A8FFF735
:103F40002DF9318B01A8FFF729F908F1010080460E
:103F5000A842C8DB15E1FF1C394601A8049AFFF707
:103F600059F80D2101A8FFF703F90B2101A8FFF76C
:103F7000FFF8294601A8FFF7FBF800262BE0E2E056
:103F80008FE045E0C6EBC60801A814F82810FFF73B
:103F9000EFF804EB8808D8F80400584502DD4FF428
:103FA00061110AE01849884201D9184905E0114910
:103FB00001F076F901F097FB014601A8FFF7F4F84C
:103FC00001A8D8F81010FFF7F5F8B8F9181001A8F3
:103FD000FFF7DEF8761CAE42D4DBD2E00000B04042
:103FE00000D6AA4083DBB5DCE1796B3F0000F03FEF
:103FF000661271400000204100003443000034C3C9
:104000000000B448F8F8FFFF0000B4C800C0C7FFC4
:10401000F61C3746314601A8049AFEF7FBFF0E2135
:1040200001A8FFF7A5F80F2101A8FFF7A1F829467D
:1040300001A8FFF79DF800202FE0C8EBC80601A8F3
:1040400014F82610FFF794F804EB860670685845BC
:1040500002DD4FF461110AE05C49884201D95C49F4
:1040600005E05C4901F01CF901F03DFB014601A8A7
:10407000FFF79AF801A83169FFF79CF8B18A01A807
:10408000FFF78CF8F18A01A8FFF788F8B6F9181045
:1040900001A8FFF77DF808F101008046A842CCDBBB
:1040A0006FE005EB850000EBC507FF1C394601A852
:1040B000049AFEF7AFFF0F2101A8FFF759F80D2171
:1040C00001A8FFF755F8294601A8FFF751F800208D
:1040D00035E0C8EBC80601A814F82610FFF748F829
:1040E00004EB86067068584502DD4FF461110AE062
:1040F0003649884201D9364905E0364901F0D0F801
:1041000001F0F1FA014601A8FFF74EF83149B06815
:1041100001F0C6F801F000FB81B201A8FFF73EF8FC
:10412000B18A01A8FFF73AF8F18A01A8FFF736F83B
:10413000B6F9181001A8FFF72BF808F10100804626
:10414000A842C6DB1DE0EF1C394601A8049AFEF721
:1041500061FF162101A8FFF70BF8012101A8FFF765
:1041600007F8294601A8FFF703F8002607E0C6EB89
:10417000C60014F8201001A8FEF7FAFF761CAE4224
:10418000F5DBFF2F0BD80020FAB20090049B0AE069
:10419000049802F033FC082009B0BDE8F08F01203C
:1041A000049B00903A4619215B1C0598FFF7F9F82B
:1041B0000798072804D1084A29460598FFF76DFD9E
:1041C000049802F01BFC0020E6E700000000B4C8E1
:1041D00000C0C7FF000020417894002038B50020BF
:1041E000009001210820FCF74EFB01211020FCF774
:1041F0004AFB01214020FCF746FB28258DF803509F
:104200000324ADF800408DF8024069463648FCF7BB
:1042100052F98DF803503020ADF800008DF80240BF
:1042200069463248FCF747F98DF80350E001ADF8D4
:1042300000008DF8024069462D48FCF73CF938BD76
:1042400070B50C460546FCF78CF9012801D000201A
:1042500070BD21462846FCF784F90128F9D00120D9
:1042600070BD10B5224A01280CD0022812D01E4A77
:10427000032817D004281DD01C4A052822D0062860
:1042800028D02DE04FF480711046FFF7D9FF0128A8
:1042900007D025E080211046FFF7D2FF01281FD16B
:1042A000022010BD01211046FFF7CAFF012817D1D7
:1042B000032010BD02211046FFF7C2FF01280FD1D5
:1042C000042010BD10211046FFF7BAFF012807D1C6
:1042D000052010BD20211046FFF7B2FF012801D0B4
:1042E000002010BD062010BD000C01400010014050
:1042F0000018014038B501214020FCF7C4FA4FF402
:10430000E050ADF8000010208DF803000320144C9D
:104310008DF8020069462046FCF7CDF821152046AD
:10432000FCF733F9E1142046FCF72FF9A1142046DD
:10433000FCF72BF938BD08B501210420FCF7A3FADE
:104340004FF4C060ADF8000048208DF80300032052
:104350008DF8020069460348FCF7ADF808BD00007F
:10436000001801400008014008B54FF44070FBF709
:10437000F3FF34208DF8000006208DF801000020A6
:104380008DF8020001208DF803006846FBF7E9FF75
:1043900008BD10B586B001211020FCF774FA012188
:1043A000C804FCF779FA4FF48060ADF810001820CB
:1043B0008DF8130003203C4C8DF8120004A9204610
:1043C000FCF779F8E114ADF8101004218DF8131002
:1043D00004A92046FCF76FF84FF4E130009000206C
:1043E000ADF80400ADF80600ADF80800ADF80C001B
:1043F0000C202E4CADF80A0069462046FCF7C2FAA4
:10440000FFF7B2FF01212046FCF72FFB06B010BDDD
:104410002DE9F04115460E460746002405E0315DC2
:10442000384600F0ABF8641CE4B2AC42F7D340214C
:104430003846FCF7D1FB0028F9D0BDE8F08170B513
:104440000446080ACDB201462046FCF764FB8021F1
:104450002046FCF7C1FB0028F9D029462046FCF78E
:104460005AFB80212046FCF7B7FB0028F9D070BD2D
:1044700070B50E4D0446C1B22846FCF74CFB8021B6
:104480002846FCF7A9FB0028F9D0204670BD10B5DE
:10449000064C20212046FCF79FFB0028F9D020463F
:1044A000BDE81040FCF73BBB00100140004C004051
:1044B00070B5F94C86B0F74DA4F204424FF4FA7689
:1044C000314602F57B702560FEF7A4FDA4F20F22B1
:1044D000314602F20320FEF79DFDA4F10C00A0601E
:1044E0000C38012160608804FCF7D6F9012108200E
:1044F000FCF7C9F92815ADF8100003248DF8124017
:104500001820E64E8DF8130004A93046FBF7D3FFC0
:10451000E814ADF8100004208DF8130004A930460B
:10452000FBF7C9FF27208DF814008DF815408DF892
:10453000164001208DF8170005A8FBF712FF002197
:104540004FF4E1300090ADF80810ADF804100C20E5
:10455000ADF80610ADF80C10ADF80A006946284613
:10456000FCF710FA012240F225512846FCF787FAA1
:1045700001212846FCF779FA06B070BD10B5044653
:10458000FCF7C9FA80212046FCF726FB0028F9D069
:1045900010BD2DE9F04115460E460746002405E002
:1045A000315D3846FFF7EAFF641CA4B2AC42F7D392
:1045B000BDE8F08170B50D46064600243046295D01
:1045C000FFF7DCFF641CA4B2285D0028F6D170BDA3
:1045D00010B5044606E06068FEF76DFD01462068F0
:1045E000FFF7CCFF6068FEF729FD0028F3D110BD6E
:1045F00010B540F22551A748FCF7F8FA002809D079
:10460000A54C2068FCF78BFAC1B2A068BDE8104049
:10461000FEF766BD10BD2DE9F04FA14DA14EDFF8AC
:104620007482DFF8849287B09B4692460F46044618
:10463000A84208D101218803FCF725F901210420B3
:10464000FCF721F91BE0B44206D101210420FCF75C
:104650001AF90121480410E0444506D1012108203F
:10466000FCF711F90121880407E04C4507D101212D
:104670001020FCF708F90121C804FCF70DF91820F7
:104680008DF81300ADF8107003278DF8127004A98F
:104690005846FBF710FF48208DF81300ADF810A026
:1046A0008DF8127004A95846FBF705FF4FF4E1306E
:1046B000009000200C21ADF80A10ADF80600ADF80E
:1046C0000C00ADF80800ADF8040069462046FCF780
:1046D00059F9012240F225512046FCF7D0F94FF458
:1046E000A060FBF739FEAC4201D125200AE0B442BC
:1046F00001D1262006E0444501D1272002E04C45A7
:1047000002D134208DF8140001208DF817008DF8A7
:1047100015008DF8160005A8FBF723FE01212046A1
:10472000FCF7A3F907B0BDE8F08F70B50C4605465D
:1047300001290AD15A4E01463046FCF7ECF9802196
:104740003046FCF749FA0028F9D0022C0AD1554E20
:1047500029463046FCF7DFF980213046FCF73CFA69
:104760000028F9D0032C0AD14A4C29462046FCF7F0
:10477000D2F980212046FCF72FFA0028F9D070BD2D
:104780002DE9F04115460F46064600240FE0012DA5
:1047900004D0022D05D0032D0CD006E0305D0121A0
:1047A00001E0305D0221FFF7C0FF641CE4B2BC42AF
:1047B000EDD3FDE6305D0321F5E702F02BBB2DE9DB
:1047C000F04116460D46074600244FF00A0825E042
:1047D000012E04D0022E10D0032E22D01DE0281B63
:1047E000401EC1B20A20FFF7E8FFB7FBF0F1B1FBB2
:1047F000F8F208FB121001210CE0281B401EC1B288
:104800000A20FFF7DAFFB7FBF0F1B1FBF8F208FB83
:10481000121002213030FFF788FF641CAC42D7D35E
:10482000C6E6281B401EC1B20A20FFF7C6FFB7FB31
:10483000F0F1B1FBF8F208FB12100321EAE770B5C2
:104840000C4605460CE0012C04D0022C04D0032CAD
:104850000AD004E0012100E00221FFF766FF6D1C91
:1048600028780028EFD170BD0321F6E70F480178C2
:10487000012901D0002070470021017001207047FC
:104880000A484178012901D0002070470021417079
:1048900001207047004800400C9A0020000C0140A5
:1048A0000038014000440040004C0040AC000020B3
:1048B00004488178012901D00020EAE700218170B5
:1048C0000120E6E7AC00002038B501210820FBF705
:1048D000DAFF10208DF8030003208DF8020000029B
:1048E000FF4CADF8000069462046FBF7E4FD0122CD
:1048F00011022046FBF74DFE012251022046FBF734
:1049000048FE38BD70B50122F54D540221462846B7
:10491000FBF73FFE0122160231462846FBF739FE1F
:10492000002221462846FBF734FE31462846BDE8E2
:1049300070400022FBF72DBE70B5E94D4FF40074B6
:10494000002221462846FBF724FE012211022846B8
:10495000FBF71FFE21462846BDE870400122FBF709
:1049600018BE2DE9F047DE4E002407464FF08008C0
:104970004FF40079B51528FA04F23A40494630461A
:10498000FBF707FE012229463046FBF702FE002214
:1049900029463046FBF7FDFD641CE4B2082CEAD33F
:1049A000012229463046FBF7F4FD29463046BDE892
:1049B000F0470022FBF7EDBD10B50446FFF7A2FF5C
:1049C0007820FFF7CEFF0020FFF7CBFF2046FFF750
:1049D000C8FFBDE81040AFE710B50446FFF792FFEF
:1049E0007820FFF7BEFF4020FFF7BBFF2046FFF710
:1049F000B8FFBDE810409FE710B50C4640F0B0008E
:104A0000FFF7DAFF102040EA1410FFF7D5FF04F09B
:104A10000F00BDE81040CFE72DE9F04780464F1E5C
:104A2000400007EB8701801E8906164614254FF0CB
:104A3000FF39C0B2090EFFF7DFFFAA4906EB860077
:104A4000002401EBC006305DFFF7C6FF641CE4B232
:104A5000AC42F8D36F4309EB4800F9B2C0B2FFF79C
:104A6000CBFF002405E06019305CFFF7B5FF641C44
:104A7000E4B2AC42F7D3BDE8F08770B50025002161
:104A80002846FFF7B9FF00240020FFF7A5FF641CAC
:104A9000E4B2802CF8D36D1CEDB2082DEFD370BDBD
:104AA0002DE9F0410746CE004000083E801E154625
:104AB0004FF0FF38F1B2C0B2FFF79EFF8A480024E2
:104AC00000EB05152819A0F5805090F8000EFFF7AF
:104AD00083FF641CE4B2082CF4D308EB4700F1B266
:104AE000C0B2FFF789FF00242819A0F5805090F884
:104AF000080EFFF771FF641CE4B2082CF4D3BDE884
:104B0000F0812DE9F04115460E460746002406E0E7
:104B10003019C1B23846FFF7C3FF641CE4B22A5D06
:104B2000002AF5D1EBE70346012000E05843491E77
:104B3000FCD270472DE9F0471D4616460F468146C8
:104B400000244FF00A0812E0291B0A20491EFFF733
:104B5000EAFFB6FBF0F1B1FBF8F208FB12123819CC
:104B6000C1B248463032FFF79BFF641CE4B2AC424E
:104B7000EAD380E72DE9F0471E4615000F4681462F
:104B800003D42B22FFF78CFF03E02D22FFF788FFD1
:104B90006D4200244FF00A0813E0311B0A20491E21
:104BA000FFF7C1FFB5FBF0F1B1FBF8F208FB121201
:104BB0003819401CC1B248463032FFF771FF641CFF
:104BC000E4B2B442E9D356E72DE9F0411D46174659
:104BD0000E468046002415E0291B1020491EFFF7D1
:104BE000A2FFB7FBF0F000F00F0206EB0400C1B229
:104BF0000A2A404601D2303200E03732FFF750FF38
:104C0000641CE4B2AC42E7D379E72DE9F0411D46DC
:104C100016460F468046002410E0291B0220491E3C
:104C2000FFF781FFB6FBF0F000F001023819C1B2C6
:104C300040463032FFF734FF641CE4B2AC42ECD3A0
:104C40005DE710B500214FF47A720020401C9042BD
:104C5000FCD3491C9142F8D3FFF736FEAE20FFF794
:104C6000ABFED520FFF7A8FE8020FFF7A5FEA82009
:104C7000FFF7A2FE3F20FFF79FFED320FFF79CFE29
:104C80000020FFF799FE4020FFF796FEA120FFF7D6
:104C900093FEC820FFF790FEDA20FFF78DFE12206A
:104CA000FFF78AFE8120FFF787FECF20FFF784FE03
:104CB000D920FFF781FEF120FFF77EFEDB20FFF712
:104CC0007BFE3020FFF778FEA420FFF775FEA620BC
:104CD000FFF772FE8D20FFF76FFE142006E0000044
:104CE000000C014044810008547B0008FFF764FE7B
:104CF000AF20FFF761FEBDE81040BEE610B5FFF73C
:104D0000A0FFFEF706F9FFF7D3FBFFF742FBFFF723
:104D1000F1FABDE81040FFF761BA1CB5FEF75AF88A
:104D200004202349C401CDE900010023224621A12A
:104D30002348FCF7F6FC1E490320091DCDE90001BC
:104D4000002322461FA12248FCF7EBFC2148012347
:104D500000901A46642120A0FDF75EFD144C241F2C
:104D6000E06048B1FDF7D0F802460020034600900D
:104D70000121E068FDF778FC2068FCF7FDFCBDE848
:104D80001C40FEF741B81CB509490120091F00234A
:104D9000CDE90001420214A1AFF28100FCF7C1FC91
:104DA000012803D1BDE81C40FDF761B81CBD00001F
:104DB000B40000204B45595F5461736B0000000044
:104DC000AB0C00084F4C45445F5461736B0000000E
:104DD000DB0C00081B0D00084175746F52656C6F89
:104DE000616454696D6572004170705461736B4306
:104DF000726561746500000038B5054614460846C2
:104E000000F052FC024600200090E248A3B229467E
:104E10000068FEF736FC38BD0A460146DD480068EA
:104E2000FEF70DBD0146DB484FF496720068FEF7B1
:104E300036BE70B515460E46044600F0CFFC01D2D2
:104E4000344605E02946204600F0D2FC00D22C462C
:104E5000204670BD10B500F1080C029C8CE81E00C5
:104E60000021816110BD2DE9F0410446406900F048
:104E700017FA00F084FCC84EC84B324600F033FBF2
:104E80000022C74B00F0A1FB05460F46A06900F0C9
:104E900076FC2A463B4600F07FFA00F083FCC149CD
:104EA000A061884208DD00F06AFC3246BE4B00F08B
:104EB00014FB00F077FCA06101F0BAFC216900F05E
:104EC000EFF9A16800F094F9B84D2860A06902F0EC
:104ED0008DFC216900F0E4F9E16800F089F9B44E35
:104EE000306000F000FC014600220220FFF784FF42
:104EF000286800F0F8FB014600220120FFF77CFF44
:104F00002868206030686060BDE8F081F0B50DF180
:104F1000140C9CE8F00081600021416200F10C0C4F
:104F200081628CE8FC00C0E90023F0BD70B50D463D
:104F30001E46114600F0B1F904462946304600F0FD
:104F4000A9F9014600F0ACF905462146084600F0F3
:104F5000A7F9294600F04CF9BDE8704002F030BDD9
:104F60002DE9F35F426A0446501C4FF0030A90FBA0
:104F7000FAF30AFB130504EBC200D0E90370814683
:104F800004EBC5004946D0E903608046034632463B
:104F90003846FFF7CBFF8346A068019900F080F9FF
:104FA000594600F0AFF9A16A00F022F9A062B0F111
:104FB0007E5F12DB0020C4E9095029466D1C95FB79
:104FC000FAF204EBC1000AFB1252D0E903708146E9
:104FD00004EBC200D0E9036080463946304600F059
:104FE00059F9A56A294600F05BF9394600F000F945
:104FF00006464946404600F04DF9294600F050F972
:10500000494600F0F5F8054600F06DFB0146002228
:105010000220FFF7F1FE304600F065FB014600225A
:105020000120FFF7E9FEC4E90065BDE8FC9F2DE91A
:10503000FC4104461E4615465E4801F0CBFC014685
:105040005D4801F0B3FC074631465C4801F0C2FC04
:1050500001465B4801F0AAFC0646384600F043FBD7
:10506000014600222046FFF7C7FE304600F03BFB1A
:10507000014600222846FFF7BFFE69462046FFF79B
:10508000CBFE01A92846FFF7C7FEBDE8FC8102F070
:10509000ADBB2DE9FC5FDFF82CA14B4E6425DFF89A
:1050A00018810020FFF7F3FF04464FF0FF37394621
:1050B000304600F065F98146214600F0F1F80446DB
:1050C0004846DFF8FC90494600F092F8214600F08F
:1050D0008FF80346022241460120FFF7A8FFC3468E
:1050E0000124C846284600F0E8FA0190DFF8A890AD
:1050F0003046394600F044F94146009000F078F817
:1051000080462046019E00F0D8FA314600F0FAF8B9
:105110000746514600F0C4F8594600F069F80646C3
:105120000121384600F02CF9012100F029F900F0A6
:1051300026FB4A46194B00F0D6F900F033FBFFF787
:10514000A6FF0146009800F0ABF80146404600F08B
:105150004FF80346022231460120FFF768FF641C26
:10516000A4B2AC42CDD960E738B505466946FFF731
:1051700053FE4FF07E5469462846FFF74DFE284601
:10518000009900F087F820F00040214600F030FB45
:10519000F1D338BDC00000204AD8124DFB21094090
:1051A00000806640DA0FC940FB2119402C00002026
:1051B0002800002000005C420000A0410000CE4218
:1051C00000009E4200000C420000C04140EA010382
:1051D0009B0703D009E008C9121F08C0042AFAD2AD
:1051E00003E011F8013B00F8013B521EF9D2704771
:1051F000F0B480EA0102D40F4200B2EB410F02D2B8
:105200000246084611464A0042D0C30DDDB2C1F342
:10521000C752AD1A202D35DAC1F3160141F4000250
:1052200004B15242C5F1200602FA06F12A411044A7
:10523000B3EBD05F23D0C4B1012DA0EBC35009DC88
:10524000F0BC4FF0004202EAC352DBB200F50000AE
:1052500000F059BB400000F1807000EBC350A0F19A
:10526000807040EAD170490009E0490841EAC07104
:10527000A0EBC35000F50000400800EBC350F0BCA9
:1052800000F038BB6142012202EB4101001BF6E74E
:10529000F0BC704781F00041AAE780F00040A7E72A
:1052A00080EA010210B502F00043400022D04A001B
:1052B0001FD0010E01EB1261C0F35600C2F356027B
:1052C00040F4000042F40002A0FB022000047F39F9
:1052D000140400D0401C50EA124001D44000491E82
:1052E000C2B20C0604EBD010401C4008802A02D049
:1052F00003E0002010BD20F00100002900DA0020AA
:10530000184310BD30B480EA010202F0004530F0CD
:10531000004221F0004013D090B1C30DD40DC2F370
:105320001601C0F31600E41A41F4000140F4000233
:105330007D34914201D3641C00E04900002C02DA64
:1053400030BC002070474FF400000023914201D38D
:10535000891A034340084FEA4101F7D151B1914204
:1053600002D14FF0004105E002D24FF0010101E00F
:105370006FF0010103EBC450284430BC00F0BABA0E
:10538000420005D0C0F3C7525242914201DC0020D6
:10539000704700EBC15070472DE9FE4F804681EA0F
:1053A0000300C00F0C46009021F0004123F000459F
:1053B000B8EB0200A94105D24046214690461C4662
:1053C0000B46024623F00040104347D0270DC7F399
:1053D0000A00C3F30A510290401A019040286BDA88
:1053E000C3F3130040F4801B0098924620B10023C1
:1053F000D2EB030A63EB0B0B01985946C0F1400254
:10540000504600F046FA06460D4650465946019A67
:1054100000F05EFA10EB08006141002487EA1152A7
:1054200084EAE7731A4340D0009A62B3019A012AD2
:105430004FEA075215DC001B61EB02014FF00042FE
:1054400002EA0752CDE90042001C41F580113246C4
:105450002B4600F0E2FA03B0BDE8F08F404621464B
:10546000F9E7001B61EB0201001C41F580130018F5
:105470005B412018A2F5001747EB030140EAD57005
:10548000B6196D4111E06D084FEA360645EAC07560
:105490004FEA0752001B61EB0201001C41F580112D
:1054A00049084FEA30000019514132462B4603B0FB
:1054B000BDE8F04F00F0A2BA00980122400000239E
:1054C000D0EB020263EBE073009821464FEAE074F0
:1054D000B8EB000061EB0401E9E783F000435BE710
:1054E00081F0004158E72DE9FE4F81EA030404F002
:1054F000004421F0004100944FF0000B23F00043E2
:1055000050EA01045ED052EA03045BD0C3F30A54AC
:10551000C1F30A552C44A4F2F3340194A0FB0254C5
:10552000C1F3130141F48011C3F3130343F4801357
:1055300001FB024400FB034E840A970A44EA8154AB
:1055400047EA8357A4FB076802958D0A05FB078588
:105550004FEA932C04FB0C542705029D4FEA065892
:1055600047EA1637B5EB08056EEB070C870E920E6F
:1055700047EA811742EA8312A7FB0201B6EB0B014F
:1055800064EB00042B0D43EA0C335E1844EB1C5013
:10559000DA465146E7FB0201C5F313044FEA0B3329
:1055A00043EA14534FEA0432019C43EA0603A4F190
:1055B0000C040294009CCDE900B400F02EFA03B074
:1055C000BDE8F08F00200146F9E72DE9F04D81EAB2
:1055D000030404F0004B21F0004514464FF0000A8C
:1055E00023F0004150EA050220D054EA01021DD008
:1055F000C5F30A570246C5F31303C1F31300C1F301
:105600000A5640F4801543F48013A7EB0608101BDC
:10561000D64608F2FD3873EB050002D308F1010805
:1056200001E092185B41B8F1000F03DA0020014657
:10563000BDE8F08D00204FF48011064684460EE050
:10564000171B73EB050705D3121B63EB050306431A
:105650004CEA010C49084FEA300092185B4150EACD
:105660000107EDD152EA030012D082EA040083EA76
:105670000501084305D0101BAB4106D201220023CF
:1056800006E000224FF0004302E06FF001025310E9
:105690001AEB06004CEB085110EB0A0041EB0B0132
:1056A000BDE8F04D00F0AAB9C10F80EAE0700844EF
:1056B000CA079623002100F026B99623002211463E
:1056C00000F021B90EB5C10F80EAE0700844CA07A6
:1056D000002140F233438DE80E000A460B4600F0ED
:1056E0009CF903B000BD00F0004220F00040C10D65
:1056F000C0F3160040F400007F2901DA0020704753
:10570000962903DCC1F19601C84001E09639884032
:10571000002AF4D04042704720F00040C10DC0F391
:10572000160040F400007F2901DA00207047962916
:1057300003DCC1F19601C840704796398840704734
:1057400070B5C1F30A5201F000450024C1F3130102
:1057500040F2FF3341F480119A4201DA002070BD1B
:1057600040F233439A42A2F2334203DC524200F049
:105770009FF800E090402C43F1D0404270BD00F013
:10578000004230F000400AD0C10D01F56071C0F355
:10579000160042EA0151C208400711437047002039
:1057A0000146704701F0004330B421F0004150EA57
:1057B000010206D00A0DA2F56072C1F31301002A9E
:1057C00002DC30BC00207047440F44EAC104C10031
:1057D000E01830BC00EBC25000F08CB8002801DBB0
:1057E000C0F10040002901DBC1F100418142704756
:1057F000002801DBC0F10040002901DBC1F10041BC
:105800008842704730B50B46014600202022012413
:1058100009E021FA02F59D4205D303FA02F5491B7E
:1058200004FA02F52844151EA2F10102F1DC30BD94
:105830002DE9F05F0546002092469B4688460646C5
:10584000814640241BE0284641464746224600F058
:105850002FF853465A46C01A914110D311461846A4
:10586000224600F016F82D1A67EB01084F46224633
:105870000120002100F00DF817EB00094E41201E19
:10588000A4F10104DFDC484631462A464346BDE820
:10589000F09F202A04DB203A00FA02F10020704732
:1058A0009140C2F1200320FA03F31943904070475E
:1058B000202A04DB203A21FA02F00021704721FA65
:1058C00002F3D040C2F120029140084319467047CC
:1058D000202A06DBCB17203A41FA02F043EAE073B4
:1058E00006E041FA02F3D040C2F1200291400843A1
:1058F000194670470029A8BF7047401C490008BFDF
:1059000020F00100704710B4B0FA80FC00FA0CF0EF
:1059100050EA010404BF10BC704749B1CCF1200427
:1059200021FA04F411FA0CF118BF012121430843B4
:10593000A3EB0C01CB1D4FEA00614FEA102042BFE0
:10594000002010BC704700EBC35010440029A4BFD6
:1059500010BC7047401C490008BF20F0010010BC7B
:105960007047F0B4002802DCF0BC00207047C0F3A0
:10597000C751C0F3160040F40000CA0701D140002F
:10598000491E3F2202EB6105002211464FF400063A
:1059900026FA01F31344D418844201D8001B1A4696
:1059A0004000491C1729F3DD5100814202D24FF01B
:1059B000FF3100E0002102EBC550F0BCFFF79ABFB9
:1059C00010B541000CD0C0F3C751962908DC7E29E0
:1059D00009DC06DB410204D000F0004040F07E50BC
:1059E00010BD002010BDC1F19604C4F1200100FAE1
:1059F00001F1E040FFF77EFFA04010BD10B5141E7E
:105A000073F1000408DA401C41F1000192185B4177
:105A10001A4301D120F0010010BD2DE9F04D92464E
:105A20009B4611B1B1FA81F202E0B0FA80F2203265
:105A30009046FFF72EFF04460F4640EA0A0041EA6F
:105A40000B0153465A46084313D0114653EA01004E
:105A500019D0C8F140025046FFF72AFF05460E460E
:105A6000504659464246FFF714FF084305D001202F
:105A700004E020463946BDE8F08D0020054346EAA3
:105A8000E0762C4337430A986305E40AA0EB08004C
:105A90000022FD0A44EA47540A3002D5002001469C
:105AA000E9E7010510196941DDE908450019694177
:105AB000BDE8F04DA2E770B521F0004303430CD0E0
:105AC000C1F30A550024D5EB040564EB0403D61793
:105AD000AD1AB34102DB0020014670BD201841EB36
